:10000000BCC00000D7C00000D5C00000D3C00000B5
:10001000D1C00000CFC00000CDC00000CBC00000A8
:10002000C9C00000C7C00000C5C00000C3C00000B8
:10003000C1C00000BFC00000BDC00000BBC00000C8
:10004000B9C00000B7C00000B5C00000B3C00000D8
:10005000B1C00000AFC00000ADC00000ABC00000E8
:10006000A9C00000A7C00000A5C00000A3C00000F8
:10007000A1C000009FC000009DC000009BC0000008
:1000800099C0000097C0000095C000000301330133
:100090003301330106013301090133013301330117
:1000A00033013301330133013301330133013301B0
:1000B00033013301330133013301330133013301A0
:1000C0003301330133013301330133013301330190
:1000D0003301330133013301330133013301330180
:1000E0003301330133013301330133013301330170
:1000F0003301330133013301330133013301330160
:100100003301330133013301330133010C01330176
:10011000330133010F013301120133013301330184
:10012000330133013301330133013301330133012F
:10013000330133013301330133013301330133011F
:10014000330133013301330133013301150133012D
:1001500033013301180133011B0133013301330132
:100160003301330133013301330133012101330101
:10017000330133011E0133012A0111241FBECFEFC9
:10018000D0E4DEBFCDBF11E0A0E0B1E0ECE4F5E0EB
:1001900000E00BBF02C007900D92A631B107D9F75E
:1001A00021E0A6E1B1E001C01D92A633B207E1F75C
:1001B00036D1CAC125CF86B1803F09F44EC086B181
:1001C0008F3009F44DC0E6B197B1909597B998B1C9
:1001D000909598B90000000086B1299AA7EAB1E687
:1001E0001197F1F700C0000029988E2BE82FEE7FC1
:1001F0008E2F90E0FC01E657F109E737F10598F5FD
:10020000EA5BFF4F98C181E090E0089582E090E0C2
:10021000089583E090E0089584E090E0089585E0FB
:1002200090E0089586E090E0089587E090E00895DA
:1002300088E090E0089589E090E0089580E090E003
:10024000089581E090E090931901809318018AE06D
:1002500090E008958BE090E008958FEF9FEF089570
:100260008FEF9FEF08958FEF9FEF0895FC0140817E
:100270005181FB01208131814217530789F4DC0150
:100280001296329608964D915D91219131914217C7
:10029000530749F4A817B907B1F781E090E0089532
:1002A00080E090E0089580E090E0089591E0A89BC0
:1002B000FECF16BC95BB80911A018F5F80931A0107
:1002C0008A30A9F710921A0108951092C5008DE4A2
:1002D0008093C400E1ECF0E080818061808386E05F
:1002E0008093C20008950F931F93CF93DF93CDB7F0
:1002F000DEB728970FB6F894DEBF0FBECDBF00E083
:1003000010E01AC058DF90931E0180931D019923BD
:100310009CF09C012A5031092230310568F0F80127
:10032000EE0FFF1F21E030E02C0F3D1FE20FF31F07
:10033000918380830F5F1F4F89859A85892B11F7E1
:10034000EDE0F1E089819A81918380838B819C81AA
:10035000938382838D819E81958384838F81988509
:100360009783868328960FB6F894DEBF0FBECDBF65
:10037000DF91CF911F910F910895EF92FF920F930C
:100380001F93CF93DF93A1DFC0ECD0E006EC10E029
:100390000F2EF3E3EF2EF1E0FF2EF02D36C0F80123
:1003A0008081E0911601F0911701E95DFE4F808395
:1003B00089EF90E00197F1F700C0000080911601ED
:1003C00090911701019690931701809316010C9755
:1003D000E1F4E7E2F1E0A0E0B1E020E030E091916B
:1003E0008D91981302C02F5F3F4FEE15FF05B9F7AF
:1003F0002C30310531F4109217011092160173DF81
:1004000004C01092170110921601888188233CF2D3
:10041000DF91CF911F910F91FF90EF9008958BE0A6
:1004200084B9289A8FE087B980EF88B916BC85B562
:10043000856085BDC0E0D0E00FE111E00F2EF6E849
:10044000AF2EB12CF02D0F2EF7E8CF2EF3E1DF2EDB
:10045000F02D0F2EF8E8EF2EF12CF02D0F2EFFE9E6
:100460008F2E99249A94F02D0F2EF1E66F2E712C79
:10047000F02D44244394512C80911801909119013E
:10048000019709F050C088E0F80111928A95E9F7C8
:10049000FFE32DE083E0F15020408040E1F700C011
:1004A00000001092190110921801C0E0D0E03BC08A
:1004B00082DE90931E0180931D010B9709F45DDF8E
:1004C00080911D0190911E0199236CF0FE01EE0FA9
:1004D000FF1FE15EFE4F918380832196C430D105DA
:1004E00011F4C0E0D0E06DE071E0C801BFDE01971B
:1004F000D1F450921C0140921B01F501D182C082BF
:100500002398F70191828082239885B18C7F85B9E9
:10051000299ACCDE239885B18C7F85B9289AF7017A
:100520007182608223988091180190911901892B22
:1005300009F4BECFA1CFEE0FFF1F0024001C0BBE9D
:0C0540000790F691E02D0994F894FFCF8D
:10054C003233313534343836343635340001000129
:06055C0000010001000097
:00000001FF
